{
  "_format": "hh-sol-artifact-1",
  "contractName": "ExchangeItGateway",
  "sourceName": "contracts/ExchangeItGateway.sol",
  "abi": [
    {
      "inputs": [],
      "stateMutability": "nonpayable",
      "type": "constructor"
    },
    {
      "anonymous": false,
      "inputs": [
        {
          "indexed": false,
          "internalType": "address",
          "name": "buyer",
          "type": "address"
        },
        {
          "indexed": false,
          "internalType": "address",
          "name": "listing",
          "type": "address"
        }
      ],
      "name": "CanceledOffer",
      "type": "event"
    },
    {
      "anonymous": false,
      "inputs": [
        {
          "indexed": false,
          "internalType": "address",
          "name": "seller",
          "type": "address"
        },
        {
          "indexed": false,
          "internalType": "address",
          "name": "listing",
          "type": "address"
        }
      ],
      "name": "ListingCreated",
      "type": "event"
    },
    {
      "anonymous": false,
      "inputs": [
        {
          "indexed": true,
          "internalType": "address",
          "name": "previousOwner",
          "type": "address"
        },
        {
          "indexed": true,
          "internalType": "address",
          "name": "newOwner",
          "type": "address"
        }
      ],
      "name": "OwnershipTransferred",
      "type": "event"
    },
    {
      "anonymous": false,
      "inputs": [
        {
          "indexed": false,
          "internalType": "address",
          "name": "buyer",
          "type": "address"
        },
        {
          "indexed": false,
          "internalType": "address",
          "name": "listing",
          "type": "address"
        }
      ],
      "name": "SubmittedOffer",
      "type": "event"
    },
    {
      "inputs": [
        {
          "internalType": "address",
          "name": "listingAddress",
          "type": "address"
        }
      ],
      "name": "cancelOffer",
      "outputs": [],
      "stateMutability": "nonpayable",
      "type": "function"
    },
    {
      "inputs": [
        {
          "internalType": "string",
          "name": "listingImageLink",
          "type": "string"
        },
        {
          "internalType": "string",
          "name": "listingTitle",
          "type": "string"
        },
        {
          "internalType": "string",
          "name": "listingDescription",
          "type": "string"
        },
        {
          "internalType": "string",
          "name": "listingLocation",
          "type": "string"
        },
        {
          "internalType": "string",
          "name": "listingContact",
          "type": "string"
        },
        {
          "internalType": "uint256",
          "name": "listingMinEscrow",
          "type": "uint256"
        },
        {
          "internalType": "uint256",
          "name": "listingPrice",
          "type": "uint256"
        },
        {
          "internalType": "bytes32",
          "name": "hashSellerCode",
          "type": "bytes32"
        }
      ],
      "name": "createListing",
      "outputs": [],
      "stateMutability": "payable",
      "type": "function"
    },
    {
      "inputs": [
        {
          "internalType": "uint256",
          "name": "page",
          "type": "uint256"
        },
        {
          "internalType": "uint256",
          "name": "resultsPerPage",
          "type": "uint256"
        }
      ],
      "name": "getAllListings",
      "outputs": [
        {
          "internalType": "address[]",
          "name": "",
          "type": "address[]"
        }
      ],
      "stateMutability": "view",
      "type": "function"
    },
    {
      "inputs": [
        {
          "internalType": "uint256",
          "name": "page",
          "type": "uint256"
        },
        {
          "internalType": "uint256",
          "name": "resultsPerPage",
          "type": "uint256"
        }
      ],
      "name": "getMyListings",
      "outputs": [
        {
          "internalType": "address[]",
          "name": "",
          "type": "address[]"
        }
      ],
      "stateMutability": "view",
      "type": "function"
    },
    {
      "inputs": [],
      "name": "getMyOffers",
      "outputs": [
        {
          "internalType": "address[]",
          "name": "",
          "type": "address[]"
        }
      ],
      "stateMutability": "view",
      "type": "function"
    },
    {
      "inputs": [
        {
          "internalType": "uint256",
          "name": "",
          "type": "uint256"
        }
      ],
      "name": "listings",
      "outputs": [
        {
          "internalType": "address",
          "name": "",
          "type": "address"
        }
      ],
      "stateMutability": "view",
      "type": "function"
    },
    {
      "inputs": [],
      "name": "owner",
      "outputs": [
        {
          "internalType": "address",
          "name": "",
          "type": "address"
        }
      ],
      "stateMutability": "view",
      "type": "function"
    },
    {
      "inputs": [],
      "name": "renounceOwnership",
      "outputs": [],
      "stateMutability": "nonpayable",
      "type": "function"
    },
    {
      "inputs": [
        {
          "internalType": "address",
          "name": "listingAddress",
          "type": "address"
        },
        {
          "internalType": "bytes32",
          "name": "hashBuyerCode",
          "type": "bytes32"
        }
      ],
      "name": "submitOffer",
      "outputs": [],
      "stateMutability": "payable",
      "type": "function"
    },
    {
      "inputs": [
        {
          "internalType": "address",
          "name": "newOwner",
          "type": "address"
        }
      ],
      "name": "transferOwnership",
      "outputs": [],
      "stateMutability": "nonpayable",
      "type": "function"
    }
  ],
  "bytecode": "0x608060405234801561001057600080fd5b50600061001b6100be565b600080546001600160a01b0319166001600160a01b0383169081178255604051929350917f8be0079c531659141344cd1fd0a4f28419497f9722a3daafe3b4186f6b6457e0908290a3506001805480820182556000919091527fb10e2d527612073b26eecdfd717e6a320cf44b4afac2b0732d9fcbe2b7fa0cf60180546001600160a01b03191690556100b960026100c2602090811b6114fa17901c565b6100cb565b3390565b80546001019055565b614524806100da6000396000f3fe6080604052600436106200009e5760003560e01c80639b8a74f011620000615780639b8a74f014620001be578063c5275fb014620001f5578063de74e57b1462000229578063ead2aad21462000257578063f2fde38b146200052d576200009e565b80630116fffc14620000a3578063037852c714620000d45780635c8a1cdd146200013e578063715018a614620001725780638da5cb5b146200018a575b600080fd5b620000d260048036036040811015620000bb57600080fd5b506001600160a01b03813516906020013562000564565b005b348015620000e157600080fd5b50620000ec620006a1565b60408051602080825283518183015283519192839290830191858101910280838360005b838110156200012a57818101518382015260200162000110565b505050509050019250505060405180910390f35b3480156200014b57600080fd5b50620000ec600480360360408110156200016457600080fd5b5080359060200135620007f4565b3480156200017f57600080fd5b50620000d262000a0f565b3480156200019757600080fd5b50620001a262000ad2565b604080516001600160a01b039092168252519081900360200190f35b348015620001cb57600080fd5b50620000d260048036036020811015620001e457600080fd5b50356001600160a01b031662000ae1565b3480156200020257600080fd5b50620000ec600480360360408110156200021b57600080fd5b508035906020013562000cab565b3480156200023657600080fd5b50620001a2600480360360208110156200024f57600080fd5b503562000dfc565b620000d260048036036101008110156200027057600080fd5b810190602081018135600160201b8111156200028b57600080fd5b8201836020820111156200029e57600080fd5b803590602001918460018302840111600160201b83111715620002c057600080fd5b91908080601f0160208091040260200160405190810160405280939291908181526020018383808284376000920191909152509295949360208101935035915050600160201b8111156200031357600080fd5b8201836020820111156200032657600080fd5b803590602001918460018302840111600160201b831117156200034857600080fd5b91908080601f0160208091040260200160405190810160405280939291908181526020018383808284376000920191909152509295949360208101935035915050600160201b8111156200039b57600080fd5b820183602082011115620003ae57600080fd5b803590602001918460018302840111600160201b83111715620003d057600080fd5b91908080601f0160208091040260200160405190810160405280939291908181526020018383808284376000920191909152509295949360208101935035915050600160201b8111156200042357600080fd5b8201836020820111156200043657600080fd5b803590602001918460018302840111600160201b831117156200045857600080fd5b91908080601f0160208091040260200160405190810160405280939291908181526020018383808284376000920191909152509295949360208101935035915050600160201b811115620004ab57600080fd5b820183602082011115620004be57600080fd5b803590602001918460018302840111600160201b83111715620004e057600080fd5b91908080601f016020809104026020016040519081016040528093929190818152602001838380828437600092019190915250929550508235935050506020810135906040013562000e24565b3480156200053a57600080fd5b50620000d2600480360360208110156200055357600080fd5b50356001600160a01b0316620013df565b604080516245bfff60e21b815233600482015260248101839052905183916001600160a01b03831691630116fffc913491604480830192600092919082900301818588803b158015620005b657600080fd5b505af1158015620005cb573d6000803e3d6000fd5b5050506001600160a01b0385166000908152600560205260409020549150508062000635576040805162461bcd60e51b8152602060048201526015602482015274131a5cdd1a5b99c8191bd95cdb89dd08195e1a5cdd605a1b604482015290519081900360640190fd5b33600081815260046020908152604080832080546001810182559084529282902090920184905581519283526001600160a01b0387169083015280517fcb6a8fce8be71cafbd26a1e7b52c7e2443cdad45b993d84a59836762157291459281900390910190a150505050565b336000908152600460209081526040918290208054835181840281018401909452808452606093849390929190830182828015620006ff57602002820191906000526020600020905b815481526020019060010190808311620006ea575b5050505050905080516000141562000728575050604080516000815260208101909152620007f1565b6060815167ffffffffffffffff811180156200074357600080fd5b506040519080825280602002602001820160405280156200076e578160200160208202803683370190505b50905060005b8251811015620007ec5760018382815181106200078d57fe5b602002602001015181548110620007a057fe5b9060005260206000200160009054906101000a90046001600160a01b0316828281518110620007cb57fe5b6001600160a01b039092166020928302919091019091015260010162000774565b509150505b90565b3360009081526003602090815260409182902080548351818402810184019094528084526060938493909291908301828280156200085257602002820191906000526020600020905b8154815260200190600101908083116200083d575b505050505090506000815111620008b0576040805162461bcd60e51b815260206004820152601a60248201527f596f7520646f6e74206861766520616e79206c697374696e6773000000000000604482015290519081900360640190fd5b60008411620008fd576040805162461bcd60e51b815260206004820152601460248201527350616765206d757374207374617274206174203160601b604482015290519081900360640190fd5b805184840284900390600019018111156200092b575050604080516000815260208101909152905062000a09565b60608467ffffffffffffffff811180156200094557600080fd5b5060405190808252806020026020018201604052801562000970578160200160208202803683370190505b50905060005b86860283101562000a03578351831415620009915762000a03565b6001848481518110620009a057fe5b602002602001015181548110620009b357fe5b9060005260206000200160009054906101000a90046001600160a01b0316828281518110620009de57fe5b6001600160a01b03909216602092830291909101909101526001928301920162000976565b50925050505b92915050565b62000a1962001503565b6001600160a01b031662000a2c62000ad2565b6001600160a01b03161462000a88576040805162461bcd60e51b815260206004820181905260248201527f4f776e61626c653a2063616c6c6572206973206e6f7420746865206f776e6572604482015290519081900360640190fd5b600080546040516001600160a01b03909116907f8be0079c531659141344cd1fd0a4f28419497f9722a3daafe3b4186f6b6457e0908390a3600080546001600160a01b0319169055565b6000546001600160a01b031690565b6001600160a01b03811660009081526005602052604090205481908062000b47576040805162461bcd60e51b8152602060048201526015602482015274131a5cdd1a5b99c8191bd95cdb89dd08195e1a5cdd605a1b604482015290519081900360640190fd5b604080516309b8a74f60e41b815233600482015290516001600160a01b03841691639b8a74f091602480830192600092919082900301818387803b15801562000b8f57600080fd5b505af115801562000ba4573d6000803e3d6000fd5b505050506000805b3360009081526004602052604090205481101562000c0757336000908152600460205260409020805491925082918290811062000be557fe5b906000526020600020015483141562000bfe5762000c07565b60010162000bac565b503360009081526004602052604090205481141562000c295750505062000ca8565b33600090815260046020526040902080548290811062000c4557fe5b90600052602060002001600090557f68f8291f64cb07c40d6959fb514e92fbb59f906e82a9b0aa0517c24ffca704e1338560405180836001600160a01b03168152602001826001600160a01b031681526020019250505060405180910390a15050505b50565b60606000831162000cfa576040805162461bcd60e51b815260206004820152601460248201527350616765206d757374207374617274206174203160601b604482015290519081900360640190fd5b60018054838502849003909101906000190181111562000d2b57505060408051600081526020810190915262000a09565b60608367ffffffffffffffff8111801562000d4557600080fd5b5060405190808252806020026020018201604052801562000d70578160200160208202803683370190505b50905060005b85850260010183101562000df35760015483141562000d955762000df3565b6001838154811062000da357fe5b9060005260206000200160009054906101000a90046001600160a01b031682828151811062000dce57fe5b6001600160a01b03909216602092830291909101909101526001928301920162000d76565b50949350505050565b6001818154811062000e0a57fe5b6000918252602090912001546001600160a01b0316905081565b600088511162000e74576040805162461bcd60e51b81526020600482015260166024820152754c696e6b206d757374206e6f7420626520656d70747960501b604482015290519081900360640190fd5b600087511162000ec5576040805162461bcd60e51b81526020600482015260176024820152765469746c65206d757374206e6f7420626520656d70747960481b604482015290519081900360640190fd5b600085511162000f1c576040805162461bcd60e51b815260206004820152601a60248201527f4c6f636174696f6e206d757374206e6f7420626520656d707479000000000000604482015290519081900360640190fd5b600086511162000f73576040805162461bcd60e51b815260206004820152601d60248201527f4465736372697074696f6e206d757374206e6f7420626520656d707479000000604482015290519081900360640190fd5b600084511162000fb55760405162461bcd60e51b8152600401808060200182810382526021815260200180620044ce6021913960400191505060405180910390fd5b6000821162000ff65760405162461bcd60e51b815260040180806020018281038252602c8152602001806200444b602c913960400191505060405180910390fd5b60008311620010375760405162461bcd60e51b815260040180806020018281038252602d815260200180620044a1602d913960400191505060405180910390fd5b81831115620010785760405162461bcd60e51b815260040180806020018281038252602a81526020018062004477602a913960400191505060405180910390fd5b600033898989898989898960405162001091906200150b565b808a6001600160a01b03168152602001806020018060200180602001806020018060200189815260200188815260200187815260200186810386528e818151815260200191508051906020019080838360005b83811015620010fe578181015183820152602001620010e4565b50505050905090810190601f1680156200112c5780820380516001836020036101000a031916815260200191505b5086810385528d5181528d516020918201918f019080838360005b838110156200116157818101518382015260200162001147565b50505050905090810190601f1680156200118f5780820380516001836020036101000a031916815260200191505b5086810384528c5181528c516020918201918e019080838360005b83811015620011c4578181015183820152602001620011aa565b50505050905090810190601f168015620011f25780820380516001836020036101000a031916815260200191505b5086810383528b5181528b516020918201918d019080838360005b83811015620012275781810151838201526020016200120d565b50505050905090810190601f168015620012555780820380516001836020036101000a031916815260200191505b5086810382528a5181528a516020918201918c019080838360005b838110156200128a57818101518382015260200162001270565b50505050905090810190601f168015620012b85780820380516001836020036101000a031916815260200191505b509e505050505050505050505050505050604051809103906000f080158015620012e6573d6000803e3d6000fd5b50600180548082019091557fb10e2d527612073b26eecdfd717e6a320cf44b4afac2b0732d9fcbe2b7fa0cf60180546001600160a01b0319166001600160a01b0383161790553360009081526003602052604090209091506200134a600262001507565b815460018101835560009283526020909220909101556200136c600262001507565b6001600160a01b038216600090815260056020526040902055620013916002620014fa565b604080513381526001600160a01b038316602082015281517f91eb1beb3f3eeaa95a545da20946eb076bd3ea441244cc261c41a8a5ace4b23c929181900390910190a1505050505050505050565b620013e962001503565b6001600160a01b0316620013fc62000ad2565b6001600160a01b03161462001458576040805162461bcd60e51b815260206004820181905260248201527f4f776e61626c653a2063616c6c6572206973206e6f7420746865206f776e6572604482015290519081900360640190fd5b6001600160a01b0381166200149f5760405162461bcd60e51b8152600401808060200182810382526026815260200180620044256026913960400191505060405180910390fd5b600080546040516001600160a01b03808516939216917f8be0079c531659141344cd1fd0a4f28419497f9722a3daafe3b4186f6b6457e091a3600080546001600160a01b0319166001600160a01b0392909216919091179055565b80546001019055565b3390565b5490565b612f0b806200151a8339019056fe60806040523480156200001157600080fd5b5060405162002f0b38038062002f0b83398181016040526101208110156200003857600080fd5b8151602083018051604051929492938301929190846401000000008211156200006057600080fd5b9083019060208201858111156200007657600080fd5b82516401000000008111828201881017156200009157600080fd5b82525081516020918201929091019080838360005b83811015620000c0578181015183820152602001620000a6565b50505050905090810190601f168015620000ee5780820380516001836020036101000a031916815260200191505b50604052602001805160405193929190846401000000008211156200011257600080fd5b9083019060208201858111156200012857600080fd5b82516401000000008111828201881017156200014357600080fd5b82525081516020918201929091019080838360005b838110156200017257818101518382015260200162000158565b50505050905090810190601f168015620001a05780820380516001836020036101000a031916815260200191505b5060405260200180516040519392919084640100000000821115620001c457600080fd5b908301906020820185811115620001da57600080fd5b8251640100000000811182820188101715620001f557600080fd5b82525081516020918201929091019080838360005b83811015620002245781810151838201526020016200020a565b50505050905090810190601f168015620002525780820380516001836020036101000a031916815260200191505b50604052602001805160405193929190846401000000008211156200027657600080fd5b9083019060208201858111156200028c57600080fd5b8251640100000000811182820188101715620002a757600080fd5b82525081516020918201929091019080838360005b83811015620002d6578181015183820152602001620002bc565b50505050905090810190601f168015620003045780820380516001836020036101000a031916815260200191505b50604052602001805160405193929190846401000000008211156200032857600080fd5b9083019060208201858111156200033e57600080fd5b82516401000000008111828201881017156200035957600080fd5b82525081516020918201929091019080838360005b83811015620003885781810151838201526020016200036e565b50505050905090810190601f168015620003b65780820380516001836020036101000a031916815260200191505b5060409081526020820151908201516060909201519093509091506000620003dd62000563565b600080546001600160a01b0319166001600160a01b0383169081178255604051929350917f8be0079c531659141344cd1fd0a4f28419497f9722a3daafe3b4186f6b6457e0908290a3506200043460003362000567565b620004607f43f25613eb2f15fb17222a5d424ca2655743e71265d98e4b93c05e5fb589ecde8a62000567565b600a80546001600160a01b0319166001600160a01b038b161790558751620004909060039060208b019062000679565b508651620004a69060049060208a019062000679565b508551620004bc90600590602089019062000679565b508451620004d290600690602088019062000679565b508351620004e890600790602087019062000679565b5060088390556009829055600c8190556000600e556002805460ff191690556040516200051590620006fe565b604051809103906000f08015801562000532573d6000803e3d6000fd5b50601280546001600160a01b0319166001600160a01b03929092169190911790555062000723975050505050505050565b3390565b62000573828262000577565b5050565b60008281526001602090815260409091206200059e91839062001b4b620005f2821b17901c565b156200057357620005ae62000563565b6001600160a01b0316816001600160a01b0316837f2f8788117e7eff1d82e926ec794901d17c78024a50270940304540a733656f0d60405160405180910390a45050565b600062000609836001600160a01b03841662000612565b90505b92915050565b600062000620838362000661565b62000658575081546001818101845560008481526020808220909301849055845484825282860190935260409020919091556200060c565b5060006200060c565b60009081526001919091016020526040902054151590565b828054600181600116156101000203166002900490600052602060002090601f016020900481019282601f10620006bc57805160ff1916838001178555620006ec565b82800160010185558215620006ec579182015b82811115620006ec578251825591602001919060010190620006cf565b50620006fa9291506200070c565b5090565b610777806200279483390190565b5b80821115620006fa57600081556001016200070d565b61206180620007336000396000f3fe6080604052600436106102045760003560e01c80638f79115f11610113578063c78f19f9116100ab578063dbe4613d1161006f578063dbe4613d146107fd578063df28d31914610812578063f0d2a35f146108c0578063f2fde38b146108f6578063f55850ce1461092957610204565b8063c78f19f91461075b578063ca15c87314610770578063ca6a715e1461079a578063cc6bee54146107af578063d547741f146107c457610204565b80638f79115f1461056b5780639010d07c14610580578063913bafee146105b057806391d14854146105c55780639b8a74f014610612578063a217fddf14610645578063b6261d0a1461065a578063b68c548b14610680578063ba0be3431461073157610204565b80633dc31411116101a15780636b7f2570116101655780636b7f257014610502578063715018a6146105175780637a01a1da1461052c5780637cc947d0146105415780638da5cb5b1461055657610204565b80633dc314111461047b57806344834aca146104905780634942e5ab146104a55780634b053c37146104d857806366af746b146104ed57610204565b806231a60f146102095780630116fffc1461029357806309d2da98146102c1578063248a9ca3146102e8578063287a02f6146103125780632a6075a5146103c35780632f2ff15d146103d857806336568abe146104115780633d9b2ae61461044a575b600080fd5b34801561021557600080fd5b5061021e61093e565b6040805160208082528351818301528351919283929083019185019080838360005b83811015610258578181015183820152602001610240565b50505050905090810190601f1680156102855780820380516001836020036101000a031916815260200191505b509250505060405180910390f35b6102bf600480360360408110156102a957600080fd5b506001600160a01b0381351690602001356109cc565b005b3480156102cd57600080fd5b506102d6610b1a565b60408051918252519081900360200190f35b3480156102f457600080fd5b506102d66004803603602081101561030b57600080fd5b5035610b20565b34801561031e57600080fd5b506102bf6004803603602081101561033557600080fd5b810190602081018135600160201b81111561034f57600080fd5b82018360208201111561036157600080fd5b803590602001918460018302840111600160201b8311171561038257600080fd5b91908080601f016020809104026020016040519081016040528093929190818152602001838380828437600092019190915250929550610b35945050505050565b3480156103cf57600080fd5b506102d6610c5c565b3480156103e457600080fd5b506102bf600480360360408110156103fb57600080fd5b50803590602001356001600160a01b0316610c62565b34801561041d57600080fd5b506102bf6004803603604081101561043457600080fd5b50803590602001356001600160a01b0316610cca565b34801561045657600080fd5b5061045f610d2b565b604080516001600160a01b039092168252519081900360200190f35b34801561048757600080fd5b5061021e610d3a565b34801561049c57600080fd5b5061045f610d95565b3480156104b157600080fd5b506102d6600480360360208110156104c857600080fd5b50356001600160a01b0316610da4565b3480156104e457600080fd5b506102d6610db6565b3480156104f957600080fd5b506102bf610dbc565b34801561050e57600080fd5b506102d6610efb565b34801561052357600080fd5b506102bf610f01565b34801561053857600080fd5b506102d6610fad565b34801561054d57600080fd5b506102bf610fd1565b34801561056257600080fd5b5061045f6111a1565b34801561057757600080fd5b5061021e6111b0565b34801561058c57600080fd5b5061045f600480360360408110156105a357600080fd5b508035906020013561120b565b3480156105bc57600080fd5b5061021e61122c565b3480156105d157600080fd5b506105fe600480360360408110156105e857600080fd5b50803590602001356001600160a01b0316611287565b604080519115158252519081900360200190f35b34801561061e57600080fd5b506102bf6004803603602081101561063557600080fd5b50356001600160a01b031661129f565b34801561065157600080fd5b506102d66114b9565b6102bf6004803603602081101561067057600080fd5b50356001600160a01b03166114be565b34801561068c57600080fd5b506102bf600480360360208110156106a357600080fd5b810190602081018135600160201b8111156106bd57600080fd5b8201836020820111156106cf57600080fd5b803590602001918460018302840111600160201b831117156106f057600080fd5b91908080601f0160208091040260200160405190810160405280939291908181526020018383808284376000920191909152509295506116b7945050505050565b34801561073d57600080fd5b5061045f6004803603602081101561075457600080fd5b50356117b1565b34801561076757600080fd5b506102d66117cc565b34801561077c57600080fd5b506102d66004803603602081101561079357600080fd5b50356117d2565b3480156107a657600080fd5b506102bf6117e9565b3480156107bb57600080fd5b506102d661184b565b3480156107d057600080fd5b506102bf600480360360408110156107e757600080fd5b50803590602001356001600160a01b0316611851565b34801561080957600080fd5b506102d66118aa565b34801561081e57600080fd5b506108276118bc565b604051808060200180602001838103835285818151815260200191508051906020019060200280838360005b8381101561086b578181015183820152602001610853565b50505050905001838103825284818151815260200191508051906020019060200280838360005b838110156108aa578181015183820152602001610892565b5050505090500194505050505060405180910390f35b3480156108cc57600080fd5b506108d56119e5565b604051808260058111156108e557fe5b815260200191505060405180910390f35b34801561090257600080fd5b506102bf6004803603602081101561091957600080fd5b50356001600160a01b03166119ee565b34801561093557600080fd5b5061021e611af0565b6007805460408051602060026001851615610100026000190190941693909304601f810184900484028201840190925281815292918301828280156109c45780601f10610999576101008083540402835291602001916109c4565b820191906000526020600020905b8154815290600101906020018083116109a757829003601f168201915b505050505081565b6109d4611b60565b6001600160a01b03166109e56111a1565b6001600160a01b031614610a2e576040805162461bcd60e51b81526020600482018190526024820152600080516020611f57833981519152604482015290519081900360640190fd5b600854341015610a6f5760405162461bcd60e51b8152600401808060200182810382526027815260200180611fab6027913960400191505060405180910390fd5b600d8190556001600160a01b0380831660008181526010602090815260408083203490819055600e548452600f90925280832080546001600160a01b03191685179055601254815163f340fa0160e01b81526004810195909552905194169363f340fa0193919260248084019391929182900301818588803b158015610af457600080fd5b505af1158015610b08573d6000803e3d6000fd5b5050600e805460010190555050505050565b600d5481565b60009081526001602052604090206002015490565b6000816040516020018082805190602001908083835b60208310610b6a5780518252601f199092019160209182019101610b4b565b6001836020036101000a038019825116818451168082178552505050505050905001915050604051602081830303815290604052805190602001209050600c548114610bfd576040805162461bcd60e51b815260206004820152601c60248201527f496e636f72726563742073656c6c657220756e6c6f636b20636f646500000000604482015290519081900360640190fd5b600160025460ff166005811115610c1057fe5b1415610c3057600280546003919060ff19166001835b0217905550610c58565b60025b60025460ff166005811115610c4457fe5b1415610c58576002805460ff191660051790555b5050565b600c5481565b600082815260016020526040902060020154610c8590610c80611b60565b611287565b610cc05760405162461bcd60e51b815260040180806020018281038252602f815260200180611e2a602f913960400191505060405180910390fd5b610c588282611b64565b610cd2611b60565b6001600160a01b0316816001600160a01b031614610d215760405162461bcd60e51b815260040180806020018281038252602f815260200180611ffd602f913960400191505060405180910390fd5b610c588282611bcd565b600a546001600160a01b031681565b6005805460408051602060026001851615610100026000190190941693909304601f810184900484028201840190925281815292918301828280156109c45780601f10610999576101008083540402835291602001916109c4565b600b546001600160a01b031681565b60106020526000908152604090205481565b60085481565b610dd4600080516020611f1083398151915233611287565b610e0f5760405162461bcd60e51b8152600401808060200182810382526027815260200180611f306027913960400191505060405180910390fd5b600460025460ff166005811115610e2257fe5b1480610e3e5750600560025460ff166005811115610e3c57fe5b145b15610eac57601254604080516351cff8d960e01b815233600482015290516001600160a01b03909216916351cff8d99160248082019260009290919082900301818387803b158015610e8f57600080fd5b505af1158015610ea3573d6000803e3d6000fd5b50505050610ef9565b6040805162461bcd60e51b815260206004820152601d60248201527f53656c6c6572207769746864726177616c206e6f7420616c6c6f776564000000604482015290519081900360640190fd5b565b60115481565b610f09611b60565b6001600160a01b0316610f1a6111a1565b6001600160a01b031614610f63576040805162461bcd60e51b81526020600482018190526024820152600080516020611f57833981519152604482015290519081900360640190fd5b600080546040516001600160a01b03909116907f8be0079c531659141344cd1fd0a4f28419497f9722a3daafe3b4186f6b6457e0908390a3600080546001600160a01b0319169055565b7ff8cd32ed93fc2f9fc78152a14807c9609af3d99c5fe4dc6b106a801aaddfe90e81565b600a546001600160a01b031633141561101b5760405162461bcd60e51b815260040180806020018281038252602b815260200180611fd2602b913960400191505060405180910390fd5b600b546001600160a01b031633141561112c57600460025460ff16600581111561104157fe5b148061105d5750600560025460ff16600581111561105b57fe5b145b156110da573360008181526010602052604080822082905560125481516351cff8d960e01b8152600481019490945290516001600160a01b03909116926351cff8d992602480830193919282900301818387803b1580156110bd57600080fd5b505af11580156110d1573d6000803e3d6000fd5b50505050611127565b6040805162461bcd60e51b815260206004820152601c60248201527f4275796572207769746864726177616c206e6f7420616c6c6f77656400000000604482015290519081900360640190fd5b610ef9565b3360008181526010602052604080822082905560125481516351cff8d960e01b8152600481019490945290516001600160a01b03909116926351cff8d992602480830193919282900301818387803b15801561118757600080fd5b505af115801561119b573d6000803e3d6000fd5b50505050565b6000546001600160a01b031690565b6003805460408051602060026001851615610100026000190190941693909304601f810184900484028201840190925281815292918301828280156109c45780601f10610999576101008083540402835291602001916109c4565b60008281526001602052604081206112239083611c36565b90505b92915050565b6006805460408051602060026001851615610100026000190190941693909304601f810184900484028201840190925281815292918301828280156109c45780601f10610999576101008083540402835291602001916109c4565b60008281526001602052604081206112239083611c42565b6112a7611b60565b6001600160a01b03166112b86111a1565b6001600160a01b031614611301576040805162461bcd60e51b81526020600482018190526024820152600080516020611f57833981519152604482015290519081900360640190fd5b600a546001600160a01b0382811691161415611364576040805162461bcd60e51b815260206004820152601f60248201527f53656c6c65722063616e63656c206f66666572206e6f7420616c6c6f77656400604482015290519081900360640190fd5b600b546001600160a01b038281169116141561143457600460025460ff16600581111561138d57fe5b14806113a95750600560025460ff1660058111156113a757fe5b145b156110da576001600160a01b03808216600081815260106020526040808220828155600e805460001901905582905560125481516351cff8d960e01b8152600481019490945290519316926351cff8d992602480820193929182900301818387803b15801561141757600080fd5b505af115801561142b573d6000803e3d6000fd5b505050506114b6565b6001600160a01b03808216600081815260106020526040808220828155600e805460001901905582905560125481516351cff8d960e01b8152600481019490945290519316926351cff8d992602480820193929182900301818387803b15801561149d57600080fd5b505af11580156114b1573d6000803e3d6000fd5b505050505b50565b600081565b6114d6600080516020611f1083398151915233611287565b6115115760405162461bcd60e51b815260040180806020018281038252602b815260200180611eb5602b913960400191505060405180910390fd5b600854601254604080516371d4ed8d60e11b81526001600160a01b0385811660048301529151919092169163e3a9db1a916024808301926020929190829003018186803b15801561156157600080fd5b505afa158015611575573d6000803e3d6000fd5b505050506040513d602081101561158b57600080fd5b505110156115ca5760405162461bcd60e51b8152600401808060200182810382526036815260200180611e596036913960400191505060405180910390fd5b6001600160a01b03811660009081526010602052604090205434146116205760405162461bcd60e51b8152600401808060200182810382526034815260200180611f776034913960400191505060405180910390fd5b600b80546001600160a01b0319166001600160a01b038316179055600280546001919060ff1916828002179055506012546040805163f340fa0160e01b815233600482015290516001600160a01b039092169163f340fa01913491602480830192600092919082900301818588803b15801561169b57600080fd5b505af11580156116af573d6000803e3d6000fd5b505050505050565b6000816040516020018082805190602001908083835b602083106116ec5780518252601f1990920191602091820191016116cd565b6001836020036101000a038019825116818451168082178552505050505050905001915050604051602081830303815290604052805190602001209050600d54811461177f576040805162461bcd60e51b815260206004820152601b60248201527f496e636f727265637420627579657220756e6c6f636b20636f64650000000000604482015290519081900360640190fd5b600160025460ff16600581111561179257fe5b14156117aa5760028054819060ff1916600182610c26565b6003610c33565b600f602052600090815260409020546001600160a01b031681565b60095481565b600081815260016020526040812061122690611c57565b611801600080516020611f1083398151915233611287565b61183c5760405162461bcd60e51b815260040180806020018281038252602b815260200180611eb5602b913960400191505060405180910390fd5b6002805460ff19166004179055565b600e5481565b60008281526001602052604090206002015461186f90610c80611b60565b610d215760405162461bcd60e51b8152600401808060200182810382526030815260200180611ee06030913960400191505060405180910390fd5b600080516020611f1083398151915281565b6060806060600e5467ffffffffffffffff811180156118da57600080fd5b50604051908082528060200260200182016040528015611904578160200160208202803683370190505b5090506060600e5467ffffffffffffffff8111801561192257600080fd5b5060405190808252806020026020018201604052801561194c578160200160208202803683370190505b50905060005b600e548110156119db576000818152600f602052604090205483516001600160a01b039091169084908390811061198557fe5b6001600160a01b039283166020918202929092018101919091526000838152600f825260408082205490931681526010909152205482518390839081106119c857fe5b6020908102919091010152600101611952565b5090925090509091565b60025460ff1681565b6119f6611b60565b6001600160a01b0316611a076111a1565b6001600160a01b031614611a50576040805162461bcd60e51b81526020600482018190526024820152600080516020611f57833981519152604482015290519081900360640190fd5b6001600160a01b038116611a955760405162461bcd60e51b8152600401808060200182810382526026815260200180611e8f6026913960400191505060405180910390fd5b600080546040516001600160a01b03808516939216917f8be0079c531659141344cd1fd0a4f28419497f9722a3daafe3b4186f6b6457e091a3600080546001600160a01b0319166001600160a01b0392909216919091179055565b6004805460408051602060026001851615610100026000190190941693909304601f810184900484028201840190925281815292918301828280156109c45780601f10610999576101008083540402835291602001916109c4565b6000611223836001600160a01b038416611c62565b3390565b6000828152600160205260409020611b7c9082611b4b565b15610c5857611b89611b60565b6001600160a01b0316816001600160a01b0316837f2f8788117e7eff1d82e926ec794901d17c78024a50270940304540a733656f0d60405160405180910390a45050565b6000828152600160205260409020611be59082611cac565b15610c5857611bf2611b60565b6001600160a01b0316816001600160a01b0316837ff6391f5c32d9c69d2a47ea670b442974b53935d1edc7fd64eb21e047a839171b60405160405180910390a45050565b60006112238383611cc1565b6000611223836001600160a01b038416611d25565b600061122682611d3d565b6000611c6e8383611d25565b611ca457508154600181810184556000848152602080822090930184905584548482528286019093526040902091909155611226565b506000611226565b6000611223836001600160a01b038416611d41565b81546000908210611d035760405162461bcd60e51b8152600401808060200182810382526022815260200180611e086022913960400191505060405180910390fd5b826000018281548110611d1257fe5b9060005260206000200154905092915050565b60009081526001919091016020526040902054151590565b5490565b60008181526001830160205260408120548015611dfd5783546000198083019190810190600090879083908110611d7457fe5b9060005260206000200154905080876000018481548110611d9157fe5b600091825260208083209091019290925582815260018981019092526040902090840190558654879080611dc157fe5b60019003818190600052602060002001600090559055866001016000878152602001908152602001600020600090556001945050505050611226565b600091505061122656fe456e756d657261626c655365743a20696e646578206f7574206f6620626f756e6473416363657373436f6e74726f6c3a2073656e646572206d75737420626520616e2061646d696e20746f206772616e744572726f7220627579657220646f6573206e6f74206861766520746865206d696e696d756d20616d6f756e74206465706f73697465644f776e61626c653a206e6577206f776e657220697320746865207a65726f2061646472657373596f7520617265206e6f74207468652073656c6c65722c2063616e6e6f7420616363657074206f66666572416363657373436f6e74726f6c3a2073656e646572206d75737420626520616e2061646d696e20746f207265766f6b6543f25613eb2f15fb17222a5d424ca2655743e71265d98e4b93c05e5fb589ecde596f7520617265206e6f74207468652073656c6c65722c2063616e6e6f742077697468647261774f776e61626c653a2063616c6c6572206973206e6f7420746865206f776e6572596f75206d757374206465706f7369742074686520616d6f756e7420636f6d6d6974656420746f20627920746865206275796572596f75206d757374206d65657420746865206d696e696d756d20657363726f7720616d6f756e7473656c6c65722063616e6e6f742063616c6c206275796572206d6574686f6420746f207769746864726177416363657373436f6e74726f6c3a2063616e206f6e6c792072656e6f756e636520726f6c657320666f722073656c66a26469706673582212204b5d3e2a4e8f70ef2017550e4045039c5d25473b0d451d69e9d0c73ceefb209664736f6c634300060c0033608060405234801561001057600080fd5b50600061001b61006a565b600080546001600160a01b0319166001600160a01b0383169081178255604051929350917f8be0079c531659141344cd1fd0a4f28419497f9722a3daafe3b4186f6b6457e0908290a35061006e565b3390565b6106fa8061007d6000396000f3fe6080604052600436106100555760003560e01c806351cff8d91461005a578063715018a61461008f5780638da5cb5b146100a4578063e3a9db1a146100d5578063f2fde38b1461011a578063f340fa011461014d575b600080fd5b34801561006657600080fd5b5061008d6004803603602081101561007d57600080fd5b50356001600160a01b0316610173565b005b34801561009b57600080fd5b5061008d610240565b3480156100b057600080fd5b506100b96102ec565b604080516001600160a01b039092168252519081900360200190f35b3480156100e157600080fd5b50610108600480360360208110156100f857600080fd5b50356001600160a01b03166102fb565b60408051918252519081900360200190f35b34801561012657600080fd5b5061008d6004803603602081101561013d57600080fd5b50356001600160a01b0316610316565b61008d6004803603602081101561016357600080fd5b50356001600160a01b0316610418565b61017b6104f5565b6001600160a01b031661018c6102ec565b6001600160a01b0316146101d5576040805162461bcd60e51b815260206004820181905260248201526000805160206106a5833981519152604482015290519081900360640190fd5b6001600160a01b03811660008181526001602052604081208054919055906101fd90826104f9565b6040805182815290516001600160a01b038416917f7084f5476618d8e60b11ef0d7d3f06914655adb8793e28ff7f018d4c76d505d5919081900360200190a25050565b6102486104f5565b6001600160a01b03166102596102ec565b6001600160a01b0316146102a2576040805162461bcd60e51b815260206004820181905260248201526000805160206106a5833981519152604482015290519081900360640190fd5b600080546040516001600160a01b03909116907f8be0079c531659141344cd1fd0a4f28419497f9722a3daafe3b4186f6b6457e0908390a3600080546001600160a01b0319169055565b6000546001600160a01b031690565b6001600160a01b031660009081526001602052604090205490565b61031e6104f5565b6001600160a01b031661032f6102ec565b6001600160a01b031614610378576040805162461bcd60e51b815260206004820181905260248201526000805160206106a5833981519152604482015290519081900360640190fd5b6001600160a01b0381166103bd5760405162461bcd60e51b81526004018080602001828103825260268152602001806106456026913960400191505060405180910390fd5b600080546040516001600160a01b03808516939216917f8be0079c531659141344cd1fd0a4f28419497f9722a3daafe3b4186f6b6457e091a3600080546001600160a01b0319166001600160a01b0392909216919091179055565b6104206104f5565b6001600160a01b03166104316102ec565b6001600160a01b03161461047a576040805162461bcd60e51b815260206004820181905260248201526000805160206106a5833981519152604482015290519081900360640190fd5b6001600160a01b038116600090815260016020526040902054349061049f90826105e3565b6001600160a01b038316600081815260016020908152604091829020939093558051848152905191927f2da466a7b24304f47e87fa2e1e5a81b9831ce54fec19055ce277ca2f39ba42c492918290030190a25050565b3390565b8047101561054e576040805162461bcd60e51b815260206004820152601d60248201527f416464726573733a20696e73756666696369656e742062616c616e6365000000604482015290519081900360640190fd5b6040516000906001600160a01b0384169083908381818185875af1925050503d8060008114610599576040519150601f19603f3d011682016040523d82523d6000602084013e61059e565b606091505b50509050806105de5760405162461bcd60e51b815260040180806020018281038252603a81526020018061066b603a913960400191505060405180910390fd5b505050565b60008282018381101561063d576040805162461bcd60e51b815260206004820152601b60248201527f536166654d6174683a206164646974696f6e206f766572666c6f770000000000604482015290519081900360640190fd5b939250505056fe4f776e61626c653a206e6577206f776e657220697320746865207a65726f2061646472657373416464726573733a20756e61626c6520746f2073656e642076616c75652c20726563697069656e74206d617920686176652072657665727465644f776e61626c653a2063616c6c6572206973206e6f7420746865206f776e6572a2646970667358221220dd9c14d667e6f85fe8b0a2d774cd5a74e07241ce2e615dbd793e3deb328d1e7164736f6c634300060c00334f776e61626c653a206e6577206f776e657220697320746865207a65726f20616464726573734d696e696d756d206c697374696e67207072696365206d7573742062652067726561746572207468616e20304c697374696e6720457363726f772063616e27742062652067726561746572207468616e2050726963654d696e696d756d206c697374696e6720657363726f77206d7573742062652067726561746572207468616e20304c697374696e6720636f6e74616374206d757374206e6f7420626520656d707479a2646970667358221220191257df048a0cdfb4cc48fcddf6f7ca40db3316df8dc9fd7b78cf45f664032564736f6c634300060c0033",
  "linkReferences": {},
  "deployedLinkReferences": {}
}