{
  "_format": "hh-sol-artifact-1",
  "contractName": "Listing",
  "sourceName": "contracts/Listing.sol",
  "abi": [
    {
      "inputs": [
        {
          "internalType": "address",
          "name": "_sellerAddress",
          "type": "address"
        },
        {
          "internalType": "string",
          "name": "_listingImageLink",
          "type": "string"
        },
        {
          "internalType": "string",
          "name": "_listingTitle",
          "type": "string"
        },
        {
          "internalType": "string",
          "name": "_listingDescription",
          "type": "string"
        },
        {
          "internalType": "string",
          "name": "_listingLocation",
          "type": "string"
        },
        {
          "internalType": "string",
          "name": "_listingContact",
          "type": "string"
        },
        {
          "internalType": "uint256",
          "name": "_listingMinEscrow",
          "type": "uint256"
        },
        {
          "internalType": "uint256",
          "name": "_listingPrice",
          "type": "uint256"
        },
        {
          "internalType": "bytes32",
          "name": "_hashSellerCode",
          "type": "bytes32"
        }
      ],
      "stateMutability": "nonpayable",
      "type": "constructor"
    },
    {
      "anonymous": false,
      "inputs": [
        {
          "indexed": false,
          "internalType": "address",
          "name": "buyer",
          "type": "address"
        }
      ],
      "name": "BuyerOfferAccepted",
      "type": "event"
    },
    {
      "anonymous": false,
      "inputs": [
        {
          "indexed": false,
          "internalType": "address",
          "name": "buyer",
          "type": "address"
        }
      ],
      "name": "BuyerOfferCancelled",
      "type": "event"
    },
    {
      "anonymous": false,
      "inputs": [],
      "name": "BuyerUnlocked",
      "type": "event"
    },
    {
      "anonymous": false,
      "inputs": [
        {
          "indexed": true,
          "internalType": "bytes32",
          "name": "id",
          "type": "bytes32"
        }
      ],
      "name": "ChainlinkCancelled",
      "type": "event"
    },
    {
      "anonymous": false,
      "inputs": [
        {
          "indexed": true,
          "internalType": "bytes32",
          "name": "id",
          "type": "bytes32"
        }
      ],
      "name": "ChainlinkFulfilled",
      "type": "event"
    },
    {
      "anonymous": false,
      "inputs": [
        {
          "indexed": true,
          "internalType": "bytes32",
          "name": "id",
          "type": "bytes32"
        }
      ],
      "name": "ChainlinkRequested",
      "type": "event"
    },
    {
      "anonymous": false,
      "inputs": [],
      "name": "ListingCancelled",
      "type": "event"
    },
    {
      "anonymous": false,
      "inputs": [
        {
          "indexed": false,
          "internalType": "address",
          "name": "listing",
          "type": "address"
        }
      ],
      "name": "ListingCompleted",
      "type": "event"
    },
    {
      "anonymous": false,
      "inputs": [
        {
          "indexed": true,
          "internalType": "address",
          "name": "previousOwner",
          "type": "address"
        },
        {
          "indexed": true,
          "internalType": "address",
          "name": "newOwner",
          "type": "address"
        }
      ],
      "name": "OwnershipTransferred",
      "type": "event"
    },
    {
      "anonymous": false,
      "inputs": [
        {
          "indexed": true,
          "internalType": "bytes32",
          "name": "role",
          "type": "bytes32"
        },
        {
          "indexed": true,
          "internalType": "bytes32",
          "name": "previousAdminRole",
          "type": "bytes32"
        },
        {
          "indexed": true,
          "internalType": "bytes32",
          "name": "newAdminRole",
          "type": "bytes32"
        }
      ],
      "name": "RoleAdminChanged",
      "type": "event"
    },
    {
      "anonymous": false,
      "inputs": [
        {
          "indexed": true,
          "internalType": "bytes32",
          "name": "role",
          "type": "bytes32"
        },
        {
          "indexed": true,
          "internalType": "address",
          "name": "account",
          "type": "address"
        },
        {
          "indexed": true,
          "internalType": "address",
          "name": "sender",
          "type": "address"
        }
      ],
      "name": "RoleGranted",
      "type": "event"
    },
    {
      "anonymous": false,
      "inputs": [
        {
          "indexed": true,
          "internalType": "bytes32",
          "name": "role",
          "type": "bytes32"
        },
        {
          "indexed": true,
          "internalType": "address",
          "name": "account",
          "type": "address"
        },
        {
          "indexed": true,
          "internalType": "address",
          "name": "sender",
          "type": "address"
        }
      ],
      "name": "RoleRevoked",
      "type": "event"
    },
    {
      "anonymous": false,
      "inputs": [],
      "name": "SellerUnlocked",
      "type": "event"
    },
    {
      "inputs": [],
      "name": "BUYER_ROLE",
      "outputs": [
        {
          "internalType": "bytes32",
          "name": "",
          "type": "bytes32"
        }
      ],
      "stateMutability": "view",
      "type": "function"
    },
    {
      "inputs": [],
      "name": "DEFAULT_ADMIN_ROLE",
      "outputs": [
        {
          "internalType": "bytes32",
          "name": "",
          "type": "bytes32"
        }
      ],
      "stateMutability": "view",
      "type": "function"
    },
    {
      "inputs": [],
      "name": "SELLER_ROLE",
      "outputs": [
        {
          "internalType": "bytes32",
          "name": "",
          "type": "bytes32"
        }
      ],
      "stateMutability": "view",
      "type": "function"
    },
    {
      "inputs": [
        {
          "internalType": "address",
          "name": "_buyerAddress",
          "type": "address"
        }
      ],
      "name": "acceptOffer",
      "outputs": [],
      "stateMutability": "payable",
      "type": "function"
    },
    {
      "inputs": [
        {
          "internalType": "address",
          "name": "_address",
          "type": "address"
        }
      ],
      "name": "addressToString",
      "outputs": [
        {
          "internalType": "string",
          "name": "",
          "type": "string"
        }
      ],
      "stateMutability": "pure",
      "type": "function"
    },
    {
      "inputs": [],
      "name": "buyerAddress",
      "outputs": [
        {
          "internalType": "address",
          "name": "",
          "type": "address"
        }
      ],
      "stateMutability": "view",
      "type": "function"
    },
    {
      "inputs": [],
      "name": "buyerWithdraw",
      "outputs": [],
      "stateMutability": "nonpayable",
      "type": "function"
    },
    {
      "inputs": [],
      "name": "cancelListing",
      "outputs": [],
      "stateMutability": "nonpayable",
      "type": "function"
    },
    {
      "inputs": [
        {
          "internalType": "address payable",
          "name": "_buyerAddress",
          "type": "address"
        }
      ],
      "name": "cancelOffer",
      "outputs": [],
      "stateMutability": "nonpayable",
      "type": "function"
    },
    {
      "inputs": [
        {
          "internalType": "bytes32",
          "name": "requestId",
          "type": "bytes32"
        },
        {
          "internalType": "bool",
          "name": "nearby",
          "type": "bool"
        }
      ],
      "name": "fulfillUserLocationRequest",
      "outputs": [],
      "stateMutability": "nonpayable",
      "type": "function"
    },
    {
      "inputs": [],
      "name": "getListingOffers",
      "outputs": [
        {
          "internalType": "address[]",
          "name": "",
          "type": "address[]"
        },
        {
          "internalType": "uint256[]",
          "name": "",
          "type": "uint256[]"
        }
      ],
      "stateMutability": "view",
      "type": "function"
    },
    {
      "inputs": [
        {
          "internalType": "bytes32",
          "name": "role",
          "type": "bytes32"
        }
      ],
      "name": "getRoleAdmin",
      "outputs": [
        {
          "internalType": "bytes32",
          "name": "",
          "type": "bytes32"
        }
      ],
      "stateMutability": "view",
      "type": "function"
    },
    {
      "inputs": [
        {
          "internalType": "bytes32",
          "name": "role",
          "type": "bytes32"
        },
        {
          "internalType": "uint256",
          "name": "index",
          "type": "uint256"
        }
      ],
      "name": "getRoleMember",
      "outputs": [
        {
          "internalType": "address",
          "name": "",
          "type": "address"
        }
      ],
      "stateMutability": "view",
      "type": "function"
    },
    {
      "inputs": [
        {
          "internalType": "bytes32",
          "name": "role",
          "type": "bytes32"
        }
      ],
      "name": "getRoleMemberCount",
      "outputs": [
        {
          "internalType": "uint256",
          "name": "",
          "type": "uint256"
        }
      ],
      "stateMutability": "view",
      "type": "function"
    },
    {
      "inputs": [
        {
          "internalType": "bytes32",
          "name": "role",
          "type": "bytes32"
        },
        {
          "internalType": "address",
          "name": "account",
          "type": "address"
        }
      ],
      "name": "grantRole",
      "outputs": [],
      "stateMutability": "nonpayable",
      "type": "function"
    },
    {
      "inputs": [
        {
          "internalType": "bytes32",
          "name": "role",
          "type": "bytes32"
        },
        {
          "internalType": "address",
          "name": "account",
          "type": "address"
        }
      ],
      "name": "hasRole",
      "outputs": [
        {
          "internalType": "bool",
          "name": "",
          "type": "bool"
        }
      ],
      "stateMutability": "view",
      "type": "function"
    },
    {
      "inputs": [],
      "name": "hashBuyerCode",
      "outputs": [
        {
          "internalType": "bytes32",
          "name": "",
          "type": "bytes32"
        }
      ],
      "stateMutability": "view",
      "type": "function"
    },
    {
      "inputs": [],
      "name": "hashSellerCode",
      "outputs": [
        {
          "internalType": "bytes32",
          "name": "",
          "type": "bytes32"
        }
      ],
      "stateMutability": "view",
      "type": "function"
    },
    {
      "inputs": [],
      "name": "listingContact",
      "outputs": [
        {
          "internalType": "string",
          "name": "",
          "type": "string"
        }
      ],
      "stateMutability": "view",
      "type": "function"
    },
    {
      "inputs": [],
      "name": "listingDescription",
      "outputs": [
        {
          "internalType": "string",
          "name": "",
          "type": "string"
        }
      ],
      "stateMutability": "view",
      "type": "function"
    },
    {
      "inputs": [],
      "name": "listingImageLink",
      "outputs": [
        {
          "internalType": "string",
          "name": "",
          "type": "string"
        }
      ],
      "stateMutability": "view",
      "type": "function"
    },
    {
      "inputs": [],
      "name": "listingLocation",
      "outputs": [
        {
          "internalType": "string",
          "name": "",
          "type": "string"
        }
      ],
      "stateMutability": "view",
      "type": "function"
    },
    {
      "inputs": [],
      "name": "listingMinEscrow",
      "outputs": [
        {
          "internalType": "uint256",
          "name": "",
          "type": "uint256"
        }
      ],
      "stateMutability": "view",
      "type": "function"
    },
    {
      "inputs": [
        {
          "internalType": "address",
          "name": "",
          "type": "address"
        }
      ],
      "name": "listingOffers",
      "outputs": [
        {
          "internalType": "uint256",
          "name": "",
          "type": "uint256"
        }
      ],
      "stateMutability": "view",
      "type": "function"
    },
    {
      "inputs": [],
      "name": "listingPrice",
      "outputs": [
        {
          "internalType": "uint256",
          "name": "",
          "type": "uint256"
        }
      ],
      "stateMutability": "view",
      "type": "function"
    },
    {
      "inputs": [],
      "name": "listingState",
      "outputs": [
        {
          "internalType": "enum Listing.ListingState",
          "name": "",
          "type": "uint8"
        }
      ],
      "stateMutability": "view",
      "type": "function"
    },
    {
      "inputs": [],
      "name": "listingTitle",
      "outputs": [
        {
          "internalType": "string",
          "name": "",
          "type": "string"
        }
      ],
      "stateMutability": "view",
      "type": "function"
    },
    {
      "inputs": [],
      "name": "numListingOffers",
      "outputs": [
        {
          "internalType": "uint256",
          "name": "",
          "type": "uint256"
        }
      ],
      "stateMutability": "view",
      "type": "function"
    },
    {
      "inputs": [],
      "name": "numOffers",
      "outputs": [
        {
          "internalType": "uint256",
          "name": "",
          "type": "uint256"
        }
      ],
      "stateMutability": "view",
      "type": "function"
    },
    {
      "inputs": [
        {
          "internalType": "uint256",
          "name": "",
          "type": "uint256"
        }
      ],
      "name": "offerIndexes",
      "outputs": [
        {
          "internalType": "address",
          "name": "",
          "type": "address"
        }
      ],
      "stateMutability": "view",
      "type": "function"
    },
    {
      "inputs": [],
      "name": "owner",
      "outputs": [
        {
          "internalType": "address",
          "name": "",
          "type": "address"
        }
      ],
      "stateMutability": "view",
      "type": "function"
    },
    {
      "inputs": [],
      "name": "renounceOwnership",
      "outputs": [],
      "stateMutability": "nonpayable",
      "type": "function"
    },
    {
      "inputs": [
        {
          "internalType": "bytes32",
          "name": "role",
          "type": "bytes32"
        },
        {
          "internalType": "address",
          "name": "account",
          "type": "address"
        }
      ],
      "name": "renounceRole",
      "outputs": [],
      "stateMutability": "nonpayable",
      "type": "function"
    },
    {
      "inputs": [],
      "name": "requestUserLocation",
      "outputs": [
        {
          "internalType": "bytes32",
          "name": "requestId",
          "type": "bytes32"
        }
      ],
      "stateMutability": "nonpayable",
      "type": "function"
    },
    {
      "inputs": [
        {
          "internalType": "bytes32",
          "name": "role",
          "type": "bytes32"
        },
        {
          "internalType": "address",
          "name": "account",
          "type": "address"
        }
      ],
      "name": "revokeRole",
      "outputs": [],
      "stateMutability": "nonpayable",
      "type": "function"
    },
    {
      "inputs": [],
      "name": "sellerAddress",
      "outputs": [
        {
          "internalType": "address",
          "name": "",
          "type": "address"
        }
      ],
      "stateMutability": "view",
      "type": "function"
    },
    {
      "inputs": [],
      "name": "sellerWithdraw",
      "outputs": [],
      "stateMutability": "nonpayable",
      "type": "function"
    },
    {
      "inputs": [
        {
          "internalType": "address",
          "name": "_buyerAddress",
          "type": "address"
        },
        {
          "internalType": "bytes32",
          "name": "_hashBuyerCode",
          "type": "bytes32"
        }
      ],
      "name": "submitOffer",
      "outputs": [],
      "stateMutability": "payable",
      "type": "function"
    },
    {
      "inputs": [
        {
          "internalType": "address",
          "name": "newOwner",
          "type": "address"
        }
      ],
      "name": "transferOwnership",
      "outputs": [],
      "stateMutability": "nonpayable",
      "type": "function"
    },
    {
      "inputs": [
        {
          "internalType": "string",
          "name": "sellerUnlockCode",
          "type": "string"
        }
      ],
      "name": "unlockListingBuyer",
      "outputs": [],
      "stateMutability": "nonpayable",
      "type": "function"
    },
    {
      "inputs": [
        {
          "internalType": "string",
          "name": "buyerUnlockCode",
          "type": "string"
        }
      ],
      "name": "unlockListingSeller",
      "outputs": [],
      "stateMutability": "nonpayable",
      "type": "function"
    }
  ],
  "bytecode": "0x60806040526001600655601880546001600160a01b031990811673326c977e6efc84e512bb9c30f76e30c160ed06fb179091556019805490911673c4be487753b9861ecc52fbce5b91b766a2d8127d1790557f3935303265653763643430383432376339396232343364326363653930323865601a5567016345785d8a0000601b553480156200008e57600080fd5b5060405162003ab138038062003ab18339818101604052610120811015620000b557600080fd5b815160208301805160405192949293830192919084640100000000821115620000dd57600080fd5b908301906020820185811115620000f357600080fd5b82516401000000008111828201881017156200010e57600080fd5b82525081516020918201929091019080838360005b838110156200013d57818101518382015260200162000123565b50505050905090810190601f1680156200016b5780820380516001836020036101000a031916815260200191505b50604052602001805160405193929190846401000000008211156200018f57600080fd5b908301906020820185811115620001a557600080fd5b8251640100000000811182820188101715620001c057600080fd5b82525081516020918201929091019080838360005b83811015620001ef578181015183820152602001620001d5565b50505050905090810190601f1680156200021d5780820380516001836020036101000a031916815260200191505b50604052602001805160405193929190846401000000008211156200024157600080fd5b9083019060208201858111156200025757600080fd5b82516401000000008111828201881017156200027257600080fd5b82525081516020918201929091019080838360005b83811015620002a157818101518382015260200162000287565b50505050905090810190601f168015620002cf5780820380516001836020036101000a031916815260200191505b5060405260200180516040519392919084640100000000821115620002f357600080fd5b9083019060208201858111156200030957600080fd5b82516401000000008111828201881017156200032457600080fd5b82525081516020918201929091019080838360005b838110156200035357818101518382015260200162000339565b50505050905090810190601f168015620003815780820380516001836020036101000a031916815260200191505b5060405260200180516040519392919084640100000000821115620003a557600080fd5b908301906020820185811115620003bb57600080fd5b8251640100000000811182820188101715620003d657600080fd5b82525081516020918201929091019080838360005b8381101562000405578181015183820152602001620003eb565b50505050905090810190601f168015620004335780820380516001836020036101000a031916815260200191505b50604090815260208201519082015160609092015190935090915060006200045a620005e0565b600080546001600160a01b0319166001600160a01b0383169081178255604051929350917f8be0079c531659141344cd1fd0a4f28419497f9722a3daafe3b4186f6b6457e0908290a350620004b1600033620005e4565b620004dd7f43f25613eb2f15fb17222a5d424ca2655743e71265d98e4b93c05e5fb589ecde8a620005e4565b601080546001600160a01b0319166001600160a01b038b1617905587516200050d9060099060208b0190620006f6565b5086516200052390600a9060208a0190620006f6565b5085516200053990600b906020890190620006f6565b5084516200054f90600c906020880190620006f6565b5083516200056590600d906020870190620006f6565b50600e839055600f829055601281905560006014556008805460ff1916905560405162000592906200077b565b604051809103906000f080158015620005af573d6000803e3d6000fd5b50601c80546001600160a01b0319166001600160a01b039290921691909117905550620007a0975050505050505050565b3390565b620005f08282620005f4565b5050565b60008281526001602090815260409091206200061b91839062001f346200066f821b17901c565b15620005f0576200062b620005e0565b6001600160a01b0316816001600160a01b0316837f2f8788117e7eff1d82e926ec794901d17c78024a50270940304540a733656f0d60405160405180910390a45050565b600062000686836001600160a01b0384166200068f565b90505b92915050565b60006200069d8383620006de565b620006d55750815460018181018455600084815260208082209093018490558454848252828601909352604090209190915562000689565b50600062000689565b60009081526001919091016020526040902054151590565b828054600181600116156101000203166002900490600052602060002090601f016020900481019282601f106200073957805160ff191683800117855562000769565b8280016001018555821562000769579182015b82811115620007695782518255916020019190600101906200074c565b506200077792915062000789565b5090565b610777806200333a83390190565b5b808211156200077757600081556001016200078a565b612b8a80620007b06000396000f3fe6080604052600436106102455760003560e01c80638da5cb5b11610139578063c78f19f9116100b6578063dbe4613d1161007a578063dbe4613d14610886578063df28d3191461089b578063f0d2a35f14610949578063f2fde38b1461097f578063f55850ce146109b2578063fc131e33146109c757610245565b8063c78f19f9146107e4578063ca15c873146107f9578063ca6a715e14610823578063cc6bee5414610838578063d547741f1461084d57610245565b80639b8a74f0116100fd5780639b8a74f01461069b578063a217fddf146106ce578063b6261d0a146106e3578063b68c548b14610709578063ba0be343146107ba57610245565b80638da5cb5b146105df5780638f79115f146105f45780639010d07c14610609578063913bafee1461063957806391d148541461064e57610245565b80633dc31411116101c757806366af746b1161018b57806366af746b146105765780636b7f25701461058b578063715018a6146105a05780637a01a1da146105b55780637cc947d0146105ca57610245565b80633dc31411146104d157806344834aca146104e65780634942e5ab146104fb5780634b053c371461052e5780635e57966d1461054357610245565b8063287a02f61161020e578063287a02f6146103685780632a6075a5146104195780632f2ff15d1461042e57806336568abe146104675780633d9b2ae6146104a057610245565b806231a60f1461024a5780630116fffc146102d457806309d2da981461030257806316f3be8114610329578063248a9ca31461033e575b600080fd5b34801561025657600080fd5b5061025f6109f9565b6040805160208082528351818301528351919283929083019185019080838360005b83811015610299578181015183820152602001610281565b50505050905090810190601f1680156102c65780820380516001836020036101000a031916815260200191505b509250505060405180910390f35b610300600480360360408110156102ea57600080fd5b506001600160a01b038135169060200135610a87565b005b34801561030e57600080fd5b50610317610bd5565b60408051918252519081900360200190f35b34801561033557600080fd5b50610317610bdb565b34801561034a57600080fd5b506103176004803603602081101561036157600080fd5b5035610ca6565b34801561037457600080fd5b506103006004803603602081101561038b57600080fd5b810190602081018135600160201b8111156103a557600080fd5b8201836020820111156103b757600080fd5b803590602001918460018302840111600160201b831117156103d857600080fd5b91908080601f016020809104026020016040519081016040528093929190818152602001838380828437600092019190915250929550610cbb945050505050565b34801561042557600080fd5b50610317610de2565b34801561043a57600080fd5b506103006004803603604081101561045157600080fd5b50803590602001356001600160a01b0316610de8565b34801561047357600080fd5b506103006004803603604081101561048a57600080fd5b50803590602001356001600160a01b0316610e50565b3480156104ac57600080fd5b506104b5610eb1565b604080516001600160a01b039092168252519081900360200190f35b3480156104dd57600080fd5b5061025f610ec0565b3480156104f257600080fd5b506104b5610f1b565b34801561050757600080fd5b506103176004803603602081101561051e57600080fd5b50356001600160a01b0316610f2a565b34801561053a57600080fd5b50610317610f3c565b34801561054f57600080fd5b5061025f6004803603602081101561056657600080fd5b50356001600160a01b0316610f42565b34801561058257600080fd5b506103006110be565b34801561059757600080fd5b506103176111fd565b3480156105ac57600080fd5b50610300611203565b3480156105c157600080fd5b506103176112af565b3480156105d657600080fd5b506103006112d3565b3480156105eb57600080fd5b506104b56114a3565b34801561060057600080fd5b5061025f6114b2565b34801561061557600080fd5b506104b56004803603604081101561062c57600080fd5b508035906020013561150d565b34801561064557600080fd5b5061025f61152e565b34801561065a57600080fd5b506106876004803603604081101561067157600080fd5b50803590602001356001600160a01b0316611589565b604080519115158252519081900360200190f35b3480156106a757600080fd5b50610300600480360360208110156106be57600080fd5b50356001600160a01b03166115a1565b3480156106da57600080fd5b506103176117bb565b610300600480360360208110156106f957600080fd5b50356001600160a01b03166117c0565b34801561071557600080fd5b506103006004803603602081101561072c57600080fd5b810190602081018135600160201b81111561074657600080fd5b82018360208201111561075857600080fd5b803590602001918460018302840111600160201b8311171561077957600080fd5b91908080601f0160208091040260200160405190810160405280939291908181526020018383808284376000920191909152509295506119b9945050505050565b3480156107c657600080fd5b506104b5600480360360208110156107dd57600080fd5b5035611ab5565b3480156107f057600080fd5b50610317611ad0565b34801561080557600080fd5b506103176004803603602081101561081c57600080fd5b5035611ad6565b34801561082f57600080fd5b50610300611aed565b34801561084457600080fd5b50610317611b4f565b34801561085957600080fd5b506103006004803603604081101561087057600080fd5b50803590602001356001600160a01b0316611b55565b34801561089257600080fd5b50610317611bae565b3480156108a757600080fd5b506108b0611bc0565b604051808060200180602001838103835285818151815260200191508051906020019060200280838360005b838110156108f45781810151838201526020016108dc565b50505050905001838103825284818151815260200191508051906020019060200280838360005b8381101561093357818101518382015260200161091b565b5050505090500194505050505060405180910390f35b34801561095557600080fd5b5061095e611ce7565b6040518082600581111561096e57fe5b815260200191505060405180910390f35b34801561098b57600080fd5b50610300600480360360208110156109a257600080fd5b50356001600160a01b0316611cf0565b3480156109be57600080fd5b5061025f611df2565b3480156109d357600080fd5b50610300600480360360408110156109ea57600080fd5b50803590602001351515611e4d565b600d805460408051602060026001851615610100026000190190941693909304601f81018490048402820184019092528181529291830182828015610a7f5780601f10610a5457610100808354040283529160200191610a7f565b820191906000526020600020905b815481529060010190602001808311610a6257829003601f168201915b505050505081565b610a8f611f49565b6001600160a01b0316610aa06114a3565b6001600160a01b031614610ae9576040805162461bcd60e51b81526020600482018190526024820152600080516020612a58833981519152604482015290519081900360640190fd5b600e54341015610b2a5760405162461bcd60e51b8152600401808060200182810382526027815260200180612ad46027913960400191505060405180910390fd5b60138190556001600160a01b03808316600081815260166020908152604080832034908190556014548452601590925280832080546001600160a01b03191685179055601c54815163f340fa0160e01b81526004810195909552905194169363f340fa0193919260248084019391929182900301818588803b158015610baf57600080fd5b505af1158015610bc3573d6000803e3d6000fd5b50506014805460010190555050505050565b60135481565b6000610be5612896565b601a54610bfa903063fc131e3360e01b611f4d565b60408051808201909152600c81526b62757965724164647265737360a01b6020820152601154919250610c4191610c39906001600160a01b0316610f42565b839190611f72565b60408051808201909152600d81526c73656c6c65724164647265737360981b6020820152601054610c7f9190610c39906001600160a01b0316610f42565b601954601b54600091610c9f916001600160a01b03909116908490611f90565b9250505090565b60009081526001602052604090206002015490565b6000816040516020018082805190602001908083835b60208310610cf05780518252601f199092019160209182019101610cd1565b6001836020036101000a0380198251168184511680821785525050505050509050019150506040516020818303038152906040528051906020012090506012548114610d83576040805162461bcd60e51b815260206004820152601c60248201527f496e636f72726563742073656c6c657220756e6c6f636b20636f646500000000604482015290519081900360640190fd5b600160085460ff166005811115610d9657fe5b1415610db657600880546003919060ff19166001835b0217905550610dde565b60025b60085460ff166005811115610dca57fe5b1415610dde576008805460ff191660051790555b5050565b60125481565b600082815260016020526040902060020154610e0b90610e06611f49565b611589565b610e465760405162461bcd60e51b815260040180806020018281038252602f815260200180612908602f913960400191505060405180910390fd5b610dde828261215e565b610e58611f49565b6001600160a01b0316816001600160a01b031614610ea75760405162461bcd60e51b815260040180806020018281038252602f815260200180612b26602f913960400191505060405180910390fd5b610dde82826121c7565b6010546001600160a01b031681565b600b805460408051602060026001851615610100026000190190941693909304601f81018490048402820184019092528181529291830182828015610a7f5780601f10610a5457610100808354040283529160200191610a7f565b6011546001600160a01b031681565b60166020526000908152604090205481565b600e5481565b604080518082018252601081526f181899199a1a9b1b9c1cb0b131b232b360811b60208201528151602a80825260608281019094526001600160a01b03851692918491602082018180368337019050509050600360fc1b81600081518110610fa657fe5b60200101906001600160f81b031916908160001a905350600f60fb1b81600181518110610fcf57fe5b60200101906001600160f81b031916908160001a90535060005b60148110156110b5578260048583600c016020811061100457fe5b1a60f81b6001600160f81b031916901c60f81c60ff168151811061102457fe5b602001015160f81c60f81b82826002026002018151811061104157fe5b60200101906001600160f81b031916908160001a905350828482600c016020811061106857fe5b825191901a600f1690811061107957fe5b602001015160f81c60f81b82826002026003018151811061109657fe5b60200101906001600160f81b031916908160001a905350600101610fe9565b50949350505050565b6110d6600080516020612a1183398151915233611589565b6111115760405162461bcd60e51b8152600401808060200182810382526027815260200180612a316027913960400191505060405180910390fd5b600460085460ff16600581111561112457fe5b14806111405750600560085460ff16600581111561113e57fe5b145b156111ae57601c54604080516351cff8d960e01b815233600482015290516001600160a01b03909216916351cff8d99160248082019260009290919082900301818387803b15801561119157600080fd5b505af11580156111a5573d6000803e3d6000fd5b505050506111fb565b6040805162461bcd60e51b815260206004820152601d60248201527f53656c6c6572207769746864726177616c206e6f7420616c6c6f776564000000604482015290519081900360640190fd5b565b60175481565b61120b611f49565b6001600160a01b031661121c6114a3565b6001600160a01b031614611265576040805162461bcd60e51b81526020600482018190526024820152600080516020612a58833981519152604482015290519081900360640190fd5b600080546040516001600160a01b03909116907f8be0079c531659141344cd1fd0a4f28419497f9722a3daafe3b4186f6b6457e0908390a3600080546001600160a01b0319169055565b7ff8cd32ed93fc2f9fc78152a14807c9609af3d99c5fe4dc6b106a801aaddfe90e81565b6010546001600160a01b031633141561131d5760405162461bcd60e51b815260040180806020018281038252602b815260200180612afb602b913960400191505060405180910390fd5b6011546001600160a01b031633141561142e57600460085460ff16600581111561134357fe5b148061135f5750600560085460ff16600581111561135d57fe5b145b156113dc5733600081815260166020526040808220829055601c5481516351cff8d960e01b8152600481019490945290516001600160a01b03909116926351cff8d992602480830193919282900301818387803b1580156113bf57600080fd5b505af11580156113d3573d6000803e3d6000fd5b50505050611429565b6040805162461bcd60e51b815260206004820152601c60248201527f4275796572207769746864726177616c206e6f7420616c6c6f77656400000000604482015290519081900360640190fd5b6111fb565b33600081815260166020526040808220829055601c5481516351cff8d960e01b8152600481019490945290516001600160a01b03909116926351cff8d992602480830193919282900301818387803b15801561148957600080fd5b505af115801561149d573d6000803e3d6000fd5b50505050565b6000546001600160a01b031690565b6009805460408051602060026001851615610100026000190190941693909304601f81018490048402820184019092528181529291830182828015610a7f5780601f10610a5457610100808354040283529160200191610a7f565b60008281526001602052604081206115259083612230565b90505b92915050565b600c805460408051602060026001851615610100026000190190941693909304601f81018490048402820184019092528181529291830182828015610a7f5780601f10610a5457610100808354040283529160200191610a7f565b6000828152600160205260408120611525908361223c565b6115a9611f49565b6001600160a01b03166115ba6114a3565b6001600160a01b031614611603576040805162461bcd60e51b81526020600482018190526024820152600080516020612a58833981519152604482015290519081900360640190fd5b6010546001600160a01b0382811691161415611666576040805162461bcd60e51b815260206004820152601f60248201527f53656c6c65722063616e63656c206f66666572206e6f7420616c6c6f77656400604482015290519081900360640190fd5b6011546001600160a01b038281169116141561173657600460085460ff16600581111561168f57fe5b14806116ab5750600560085460ff1660058111156116a957fe5b145b156113dc576001600160a01b0380821660008181526016602052604080822082815560148054600019019055829055601c5481516351cff8d960e01b8152600481019490945290519316926351cff8d992602480820193929182900301818387803b15801561171957600080fd5b505af115801561172d573d6000803e3d6000fd5b505050506117b8565b6001600160a01b0380821660008181526016602052604080822082815560148054600019019055829055601c5481516351cff8d960e01b8152600481019490945290519316926351cff8d992602480820193929182900301818387803b15801561179f57600080fd5b505af11580156117b3573d6000803e3d6000fd5b505050505b50565b600081565b6117d8600080516020612a1183398151915233611589565b6118135760405162461bcd60e51b815260040180806020018281038252602b815260200180612993602b913960400191505060405180910390fd5b600e54601c54604080516371d4ed8d60e11b81526001600160a01b0385811660048301529151919092169163e3a9db1a916024808301926020929190829003018186803b15801561186357600080fd5b505afa158015611877573d6000803e3d6000fd5b505050506040513d602081101561188d57600080fd5b505110156118cc5760405162461bcd60e51b81526004018080602001828103825260368152602001806129376036913960400191505060405180910390fd5b6001600160a01b03811660009081526016602052604090205434146119225760405162461bcd60e51b8152600401808060200182810382526034815260200180612a786034913960400191505060405180910390fd5b601180546001600160a01b0319166001600160a01b038316179055600880546001919060ff191682800217905550601c546040805163f340fa0160e01b815233600482015290516001600160a01b039092169163f340fa01913491602480830192600092919082900301818588803b15801561199d57600080fd5b505af11580156119b1573d6000803e3d6000fd5b505050505050565b6000816040516020018082805190602001908083835b602083106119ee5780518252601f1990920191602091820191016119cf565b6001836020036101000a0380198251168184511680821785525050505050509050019150506040516020818303038152906040528051906020012090506013548114611a81576040805162461bcd60e51b815260206004820152601b60248201527f496e636f727265637420627579657220756e6c6f636b20636f64650000000000604482015290519081900360640190fd5b600160085460ff166005811115611a9457fe5b1415611aae57600880546002919060ff1916600183610dac565b6003610db9565b6015602052600090815260409020546001600160a01b031681565b600f5481565b600081815260016020526040812061152890612251565b611b05600080516020612a1183398151915233611589565b611b405760405162461bcd60e51b815260040180806020018281038252602b815260200180612993602b913960400191505060405180910390fd5b6008805460ff19166004179055565b60145481565b600082815260016020526040902060020154611b7390610e06611f49565b610ea75760405162461bcd60e51b81526004018080602001828103825260308152602001806129e16030913960400191505060405180910390fd5b600080516020612a1183398151915281565b60608060606014546001600160401b0381118015611bdd57600080fd5b50604051908082528060200260200182016040528015611c07578160200160208202803683370190505b50905060606014546001600160401b0381118015611c2457600080fd5b50604051908082528060200260200182016040528015611c4e578160200160208202803683370190505b50905060005b601454811015611cdd5760008181526015602052604090205483516001600160a01b0390911690849083908110611c8757fe5b6001600160a01b039283166020918202929092018101919091526000838152601582526040808220549093168152601690915220548251839083908110611cca57fe5b6020908102919091010152600101611c54565b5090925090509091565b60085460ff1681565b611cf8611f49565b6001600160a01b0316611d096114a3565b6001600160a01b031614611d52576040805162461bcd60e51b81526020600482018190526024820152600080516020612a58833981519152604482015290519081900360640190fd5b6001600160a01b038116611d975760405162461bcd60e51b815260040180806020018281038252602681526020018061296d6026913960400191505060405180910390fd5b600080546040516001600160a01b03808516939216917f8be0079c531659141344cd1fd0a4f28419497f9722a3daafe3b4186f6b6457e091a3600080546001600160a01b0319166001600160a01b0392909216919091179055565b600a805460408051602060026001851615610100026000190190941693909304601f81018490048402820184019092528181529291830182828015610a7f5780601f10610a5457610100808354040283529160200191610a7f565b60008281526007602052604090205482906001600160a01b03163314611ea45760405162461bcd60e51b8152600401808060200182810382526028815260200180612aac6028913960400191505060405180910390fd5b60008181526007602052604080822080546001600160a01b03191690555182917f7cc135e0cebb02c3480ae5d74d377283180a2601f8f644edf7987b009316c63a91a28115611f2f576008805460ff191660051790556040805130815290517f26b0040112ca6cd74c2669f08a2eecfee6b4c9a45445f35d28c86db67c7176eb916020908290030190a15b505050565b6000611525836001600160a01b03841661225c565b3390565b611f55612896565b611f5d612896565b611f69818686866122a6565b95945050505050565b6080830151611f8190836122e3565b6080830151611f2f90826122e3565b6006546040805130606090811b60208084019190915260348084018690528451808503909101815260549093018452825192810192909220908601939093526000838152600790915281812080546001600160a01b0319166001600160a01b038816179055905182917fb5e6e01e79f91267dc17b4e6314d5d4d03593d2ceee0fbb452b750bd70ea5af991a26004546001600160a01b0316634000aea08584612038876122fa565b6040518463ffffffff1660e01b815260040180846001600160a01b0316815260200183815260200180602001828103825283818151815260200191508051906020019080838360005b83811015612099578181015183820152602001612081565b50505050905090810190601f1680156120c65780820380516001836020036101000a031916815260200191505b50945050505050602060405180830381600087803b1580156120e757600080fd5b505af11580156120fb573d6000803e3d6000fd5b505050506040513d602081101561211157600080fd5b505161214e5760405162461bcd60e51b81526004018080602001828103825260238152602001806129be6023913960400191505060405180910390fd5b6006805460010190559392505050565b60008281526001602052604090206121769082611f34565b15610dde57612183611f49565b6001600160a01b0316816001600160a01b0316837f2f8788117e7eff1d82e926ec794901d17c78024a50270940304540a733656f0d60405160405180910390a45050565b60008281526001602052604090206121df908261241e565b15610dde576121ec611f49565b6001600160a01b0316816001600160a01b0316837ff6391f5c32d9c69d2a47ea670b442974b53935d1edc7fd64eb21e047a839171b60405160405180910390a45050565b60006115258383612433565b6000611525836001600160a01b038416612497565b6000611528826124af565b60006122688383612497565b61229e57508154600181810184556000848152602080822090930184905584548482528286019093526040902091909155611528565b506000611528565b6122ae612896565b6122be85608001516101006124b3565b50509183526001600160a01b031660208301526001600160e01b031916604082015290565b6122f082600383516124ed565b611f2f82826125fa565b6060634042994660e01b6000808460000151856020015186604001518760600151600189608001516000015160405160240180896001600160a01b03168152602001888152602001878152602001866001600160a01b03168152602001856001600160e01b031916815260200184815260200183815260200180602001828103825283818151815260200191508051906020019080838360005b838110156123ac578181015183820152602001612394565b50505050905090810190601f1680156123d95780820380516001836020036101000a031916815260200191505b5060408051601f198184030181529190526020810180516001600160e01b03166001600160e01b0319909d169c909c17909b5250989950505050505050505050919050565b6000611525836001600160a01b038416612614565b815460009082106124755760405162461bcd60e51b81526004018080602001828103825260228152602001806128e66022913960400191505060405180910390fd5b82600001828154811061248457fe5b9060005260206000200154905092915050565b60009081526001919091016020526040902054151590565b5490565b6124bb6128cb565b60208206156124d05760208206602003820191505b506020828101829052604080518085526000815290920101905290565b6017816001600160401b031611612517576125118360e0600585901b1683176126da565b50611f2f565b60ff816001600160401b0316116125535761253d836018611fe0600586901b16176126da565b50612511836001600160401b03831660016126f2565b61ffff816001600160401b0316116125905761257a836019611fe0600586901b16176126da565b50612511836001600160401b03831660026126f2565b63ffffffff816001600160401b0316116125cf576125b983601a611fe0600586901b16176126da565b50612511836001600160401b03831660046126f2565b6125e483601b611fe0600586901b16176126da565b5061149d836001600160401b03831660086126f2565b6126026128cb565b61152583846000015151848551612713565b600081815260018301602052604081205480156126d0578354600019808301919081019060009087908390811061264757fe5b906000526020600020015490508087600001848154811061266457fe5b60009182526020808320909101929092558281526001898101909252604090209084019055865487908061269457fe5b60019003818190600052602060002001600090559055866001016000878152602001908152602001600020600090556001945050505050611528565b6000915050611528565b6126e26128cb565b61152583846000015151846127bf565b6126fa6128cb565b61270b84856000015151858561280a565b949350505050565b61271b6128cb565b825182111561272957600080fd5b84602001518285011115612753576127538561274b8760200151878601612868565b60020261287f565b6000808651805187602083010193508088870111156127725787860182525b505050602084015b602084106127995780518252601f19909301926020918201910161277a565b51815160001960208690036101000a019081169019919091161790525083949350505050565b6127c76128cb565b836020015183106127e3576127e384856020015160020261287f565b835180516020858301018481535080851415612800576001810182525b5093949350505050565b6128126128cb565b8460200151848301111561282f5761282f8585840160020261287f565b60006001836101000a03905085518386820101858319825116178152508051848701111561285d5783860181525b509495945050505050565b600081831115612879575081611528565b50919050565b815161288b83836124b3565b5061149d83826125fa565b6040805160a0810182526000808252602082018190529181018290526060810191909152608081016128c66128cb565b905290565b60405180604001604052806060815260200160008152509056fe456e756d657261626c655365743a20696e646578206f7574206f6620626f756e6473416363657373436f6e74726f6c3a2073656e646572206d75737420626520616e2061646d696e20746f206772616e744572726f7220627579657220646f6573206e6f74206861766520746865206d696e696d756d20616d6f756e74206465706f73697465644f776e61626c653a206e6577206f776e657220697320746865207a65726f2061646472657373596f7520617265206e6f74207468652073656c6c65722c2063616e6e6f7420616363657074206f66666572756e61626c6520746f207472616e73666572416e6443616c6c20746f206f7261636c65416363657373436f6e74726f6c3a2073656e646572206d75737420626520616e2061646d696e20746f207265766f6b6543f25613eb2f15fb17222a5d424ca2655743e71265d98e4b93c05e5fb589ecde596f7520617265206e6f74207468652073656c6c65722c2063616e6e6f742077697468647261774f776e61626c653a2063616c6c6572206973206e6f7420746865206f776e6572596f75206d757374206465706f7369742074686520616d6f756e7420636f6d6d6974656420746f20627920746865206275796572536f75726365206d75737420626520746865206f7261636c65206f66207468652072657175657374596f75206d757374206d65657420746865206d696e696d756d20657363726f7720616d6f756e7473656c6c65722063616e6e6f742063616c6c206275796572206d6574686f6420746f207769746864726177416363657373436f6e74726f6c3a2063616e206f6e6c792072656e6f756e636520726f6c657320666f722073656c66a2646970667358221220f79fa9b85b0f091d752cc989b3fa1cc7539bacd165780ddbce97105d9e0229d164736f6c634300060c0033608060405234801561001057600080fd5b50600061001b61006a565b600080546001600160a01b0319166001600160a01b0383169081178255604051929350917f8be0079c531659141344cd1fd0a4f28419497f9722a3daafe3b4186f6b6457e0908290a35061006e565b3390565b6106fa8061007d6000396000f3fe6080604052600436106100555760003560e01c806351cff8d91461005a578063715018a61461008f5780638da5cb5b146100a4578063e3a9db1a146100d5578063f2fde38b1461011a578063f340fa011461014d575b600080fd5b34801561006657600080fd5b5061008d6004803603602081101561007d57600080fd5b50356001600160a01b0316610173565b005b34801561009b57600080fd5b5061008d610240565b3480156100b057600080fd5b506100b96102ec565b604080516001600160a01b039092168252519081900360200190f35b3480156100e157600080fd5b50610108600480360360208110156100f857600080fd5b50356001600160a01b03166102fb565b60408051918252519081900360200190f35b34801561012657600080fd5b5061008d6004803603602081101561013d57600080fd5b50356001600160a01b0316610316565b61008d6004803603602081101561016357600080fd5b50356001600160a01b0316610418565b61017b6104f5565b6001600160a01b031661018c6102ec565b6001600160a01b0316146101d5576040805162461bcd60e51b815260206004820181905260248201526000805160206106a5833981519152604482015290519081900360640190fd5b6001600160a01b03811660008181526001602052604081208054919055906101fd90826104f9565b6040805182815290516001600160a01b038416917f7084f5476618d8e60b11ef0d7d3f06914655adb8793e28ff7f018d4c76d505d5919081900360200190a25050565b6102486104f5565b6001600160a01b03166102596102ec565b6001600160a01b0316146102a2576040805162461bcd60e51b815260206004820181905260248201526000805160206106a5833981519152604482015290519081900360640190fd5b600080546040516001600160a01b03909116907f8be0079c531659141344cd1fd0a4f28419497f9722a3daafe3b4186f6b6457e0908390a3600080546001600160a01b0319169055565b6000546001600160a01b031690565b6001600160a01b031660009081526001602052604090205490565b61031e6104f5565b6001600160a01b031661032f6102ec565b6001600160a01b031614610378576040805162461bcd60e51b815260206004820181905260248201526000805160206106a5833981519152604482015290519081900360640190fd5b6001600160a01b0381166103bd5760405162461bcd60e51b81526004018080602001828103825260268152602001806106456026913960400191505060405180910390fd5b600080546040516001600160a01b03808516939216917f8be0079c531659141344cd1fd0a4f28419497f9722a3daafe3b4186f6b6457e091a3600080546001600160a01b0319166001600160a01b0392909216919091179055565b6104206104f5565b6001600160a01b03166104316102ec565b6001600160a01b03161461047a576040805162461bcd60e51b815260206004820181905260248201526000805160206106a5833981519152604482015290519081900360640190fd5b6001600160a01b038116600090815260016020526040902054349061049f90826105e3565b6001600160a01b038316600081815260016020908152604091829020939093558051848152905191927f2da466a7b24304f47e87fa2e1e5a81b9831ce54fec19055ce277ca2f39ba42c492918290030190a25050565b3390565b8047101561054e576040805162461bcd60e51b815260206004820152601d60248201527f416464726573733a20696e73756666696369656e742062616c616e6365000000604482015290519081900360640190fd5b6040516000906001600160a01b0384169083908381818185875af1925050503d8060008114610599576040519150601f19603f3d011682016040523d82523d6000602084013e61059e565b606091505b50509050806105de5760405162461bcd60e51b815260040180806020018281038252603a81526020018061066b603a913960400191505060405180910390fd5b505050565b60008282018381101561063d576040805162461bcd60e51b815260206004820152601b60248201527f536166654d6174683a206164646974696f6e206f766572666c6f770000000000604482015290519081900360640190fd5b939250505056fe4f776e61626c653a206e6577206f776e657220697320746865207a65726f2061646472657373416464726573733a20756e61626c6520746f2073656e642076616c75652c20726563697069656e74206d617920686176652072657665727465644f776e61626c653a2063616c6c6572206973206e6f7420746865206f776e6572a2646970667358221220dd9c14d667e6f85fe8b0a2d774cd5a74e07241ce2e615dbd793e3deb328d1e7164736f6c634300060c0033",
  "linkReferences": {},
  "deployedLinkReferences": {}
}